{
  "_format": "hh-sol-artifact-1",
  "contractName": "LibraryRegistry",
  "sourceName": "contracts/LibraryRegistry.sol",
  "abi": [
    {
      "inputs": [],
      "stateMutability": "nonpayable",
      "type": "constructor"
    },
    {
      "inputs": [
        {
          "internalType": "address",
          "name": "owner",
          "type": "address"
        }
      ],
      "name": "OwnableInvalidOwner",
      "type": "error"
    },
    {
      "inputs": [
        {
          "internalType": "address",
          "name": "account",
          "type": "address"
        }
      ],
      "name": "OwnableUnauthorizedAccount",
      "type": "error"
    },
    {
      "anonymous": false,
      "inputs": [
        {
          "indexed": true,
          "internalType": "string",
          "name": "libraryName",
          "type": "string"
        },
        {
          "indexed": true,
          "internalType": "address",
          "name": "user",
          "type": "address"
        }
      ],
      "name": "AuthorizationGranted",
      "type": "event"
    },
    {
      "anonymous": false,
      "inputs": [
        {
          "indexed": true,
          "internalType": "string",
          "name": "libraryName",
          "type": "string"
        },
        {
          "indexed": true,
          "internalType": "address",
          "name": "user",
          "type": "address"
        }
      ],
      "name": "AuthorizationRevoked",
      "type": "event"
    },
    {
      "anonymous": false,
      "inputs": [
        {
          "indexed": true,
          "internalType": "string",
          "name": "name",
          "type": "string"
        }
      ],
      "name": "LibraryDeleted",
      "type": "event"
    },
    {
      "anonymous": false,
      "inputs": [
        {
          "indexed": true,
          "internalType": "string",
          "name": "name",
          "type": "string"
        },
        {
          "indexed": true,
          "internalType": "address",
          "name": "owner",
          "type": "address"
        },
        {
          "indexed": false,
          "internalType": "bool",
          "name": "isPrivate",
          "type": "bool"
        },
        {
          "indexed": false,
          "internalType": "string",
          "name": "language",
          "type": "string"
        }
      ],
      "name": "LibraryRegistered",
      "type": "event"
    },
    {
      "anonymous": false,
      "inputs": [
        {
          "indexed": true,
          "internalType": "address",
          "name": "previousOwner",
          "type": "address"
        },
        {
          "indexed": true,
          "internalType": "address",
          "name": "newOwner",
          "type": "address"
        }
      ],
      "name": "OwnershipTransferred",
      "type": "event"
    },
    {
      "anonymous": false,
      "inputs": [
        {
          "indexed": true,
          "internalType": "string",
          "name": "libraryName",
          "type": "string"
        },
        {
          "indexed": false,
          "internalType": "string",
          "name": "version",
          "type": "string"
        }
      ],
      "name": "VersionDeprecated",
      "type": "event"
    },
    {
      "anonymous": false,
      "inputs": [
        {
          "indexed": true,
          "internalType": "string",
          "name": "libraryName",
          "type": "string"
        },
        {
          "indexed": false,
          "internalType": "string",
          "name": "version",
          "type": "string"
        },
        {
          "indexed": false,
          "internalType": "string",
          "name": "ipfsHash",
          "type": "string"
        },
        {
          "indexed": true,
          "internalType": "address",
          "name": "publisher",
          "type": "address"
        }
      ],
      "name": "VersionPublished",
      "type": "event"
    },
    {
      "inputs": [
        {
          "internalType": "string",
          "name": "libraryName",
          "type": "string"
        },
        {
          "internalType": "address",
          "name": "userAddress",
          "type": "address"
        }
      ],
      "name": "authorizeUser",
      "outputs": [],
      "stateMutability": "nonpayable",
      "type": "function"
    },
    {
      "inputs": [
        {
          "internalType": "string",
          "name": "name",
          "type": "string"
        }
      ],
      "name": "deleteLibrary",
      "outputs": [],
      "stateMutability": "nonpayable",
      "type": "function"
    },
    {
      "inputs": [
        {
          "internalType": "string",
          "name": "libraryName",
          "type": "string"
        },
        {
          "internalType": "string",
          "name": "version",
          "type": "string"
        }
      ],
      "name": "deprecateVersion",
      "outputs": [],
      "stateMutability": "nonpayable",
      "type": "function"
    },
    {
      "inputs": [],
      "name": "getAllLibraryNames",
      "outputs": [
        {
          "internalType": "string[]",
          "name": "",
          "type": "string[]"
        }
      ],
      "stateMutability": "view",
      "type": "function"
    },
    {
      "inputs": [
        {
          "internalType": "string",
          "name": "libraryName",
          "type": "string"
        }
      ],
      "name": "getLibraryInfo",
      "outputs": [
        {
          "internalType": "address",
          "name": "owner",
          "type": "address"
        },
        {
          "internalType": "string",
          "name": "description",
          "type": "string"
        },
        {
          "internalType": "string[]",
          "name": "tags",
          "type": "string[]"
        },
        {
          "internalType": "bool",
          "name": "isPrivate",
          "type": "bool"
        },
        {
          "internalType": "string",
          "name": "language",
          "type": "string"
        }
      ],
      "stateMutability": "view",
      "type": "function"
    },
    {
      "inputs": [
        {
          "internalType": "string",
          "name": "libraryName",
          "type": "string"
        },
        {
          "internalType": "string",
          "name": "version",
          "type": "string"
        }
      ],
      "name": "getVersionInfo",
      "outputs": [
        {
          "internalType": "string",
          "name": "ipfsHash",
          "type": "string"
        },
        {
          "internalType": "address",
          "name": "publisher",
          "type": "address"
        },
        {
          "internalType": "uint256",
          "name": "timestamp",
          "type": "uint256"
        },
        {
          "internalType": "bool",
          "name": "deprecated",
          "type": "bool"
        },
        {
          "components": [
            {
              "internalType": "string",
              "name": "name",
              "type": "string"
            },
            {
              "internalType": "string",
              "name": "constraint",
              "type": "string"
            }
          ],
          "internalType": "struct LibraryRegistry.Dependency[]",
          "name": "dependencies",
          "type": "tuple[]"
        }
      ],
      "stateMutability": "view",
      "type": "function"
    },
    {
      "inputs": [
        {
          "internalType": "string",
          "name": "libraryName",
          "type": "string"
        }
      ],
      "name": "getVersionNumbers",
      "outputs": [
        {
          "internalType": "string[]",
          "name": "",
          "type": "string[]"
        }
      ],
      "stateMutability": "view",
      "type": "function"
    },
    {
      "inputs": [
        {
          "internalType": "string",
          "name": "libraryName",
          "type": "string"
        },
        {
          "internalType": "address",
          "name": "userAddress",
          "type": "address"
        }
      ],
      "name": "hasAccess",
      "outputs": [
        {
          "internalType": "bool",
          "name": "",
          "type": "bool"
        }
      ],
      "stateMutability": "view",
      "type": "function"
    },
    {
      "inputs": [],
      "name": "owner",
      "outputs": [
        {
          "internalType": "address",
          "name": "",
          "type": "address"
        }
      ],
      "stateMutability": "view",
      "type": "function"
    },
    {
      "inputs": [
        {
          "internalType": "string",
          "name": "libraryName",
          "type": "string"
        },
        {
          "internalType": "string",
          "name": "version",
          "type": "string"
        },
        {
          "internalType": "string",
          "name": "ipfsHash",
          "type": "string"
        },
        {
          "components": [
            {
              "internalType": "string",
              "name": "name",
              "type": "string"
            },
            {
              "internalType": "string",
              "name": "constraint",
              "type": "string"
            }
          ],
          "internalType": "struct LibraryRegistry.Dependency[]",
          "name": "_dependencies",
          "type": "tuple[]"
        }
      ],
      "name": "publishVersion",
      "outputs": [],
      "stateMutability": "nonpayable",
      "type": "function"
    },
    {
      "inputs": [
        {
          "internalType": "string",
          "name": "name",
          "type": "string"
        },
        {
          "internalType": "string",
          "name": "description",
          "type": "string"
        },
        {
          "internalType": "string[]",
          "name": "tags",
          "type": "string[]"
        },
        {
          "internalType": "bool",
          "name": "isPrivate",
          "type": "bool"
        },
        {
          "internalType": "string",
          "name": "_language",
          "type": "string"
        }
      ],
      "name": "registerLibrary",
      "outputs": [],
      "stateMutability": "nonpayable",
      "type": "function"
    },
    {
      "inputs": [],
      "name": "renounceOwnership",
      "outputs": [],
      "stateMutability": "nonpayable",
      "type": "function"
    },
    {
      "inputs": [
        {
          "internalType": "string",
          "name": "libraryName",
          "type": "string"
        },
        {
          "internalType": "address",
          "name": "userAddress",
          "type": "address"
        }
      ],
      "name": "revokeAuthorization",
      "outputs": [],
      "stateMutability": "nonpayable",
      "type": "function"
    },
    {
      "inputs": [
        {
          "internalType": "address",
          "name": "newOwner",
          "type": "address"
        }
      ],
      "name": "transferOwnership",
      "outputs": [],
      "stateMutability": "nonpayable",
      "type": "function"
    }
  ],
  "bytecode": "0x6080806040523461007a5733156100645760008054336001600160a01b03198216811783556040519290916001600160a01b0316907f8be0079c531659141344cd1fd0a4f28419497f9722a3daafe3b4186f6b6457e09080a3611cd190816100808239f35b631e4fbdf760e01b815260006004820152602490fd5b600080fdfe6080604052600436101561001257600080fd5b60003560e01c8063097396a51461105757806313bd20e214611021578063401061f714610e205780634586291214610b6e578063715018a614610b15578063817d279d14610a0b5780638da5cb5b146109e25780638e59f5dd14610966578063a0935e5014610585578063b4f6388514610421578063ef77d1221461033e578063f2fde38b146102ae578063fd908b2b146102135763ff909a8c146100b657600080fd5b3461020e576102097f4ec7bb72c7d33795506179b0599b6df6ff0a26a7cc3245eb177bc5c39857116b6100e836611462565b92916100f895919536828561184e565b9261015d6040519480519061012d60ff60209889818186019661011c81838a6114ac565b8101600381520301902054166118e0565b61013f604051928392519283916114ac565b81019060018252868160018060a01b0393030190205416331461193c565b6101b66101af6101a98960056101988961018461017b368b8b61184e565b948d369161184e565b9381604051938285809451938492016114ac565b8101600181520301902001906118ba565b546115c5565b1515611999565b60036101d96005604051858582378781878101600181520301902001878a6115ac565b01600160ff198254161790558160405192839283378101600081520390209460405193838594855284019161180c565b0390a2005b600080fd5b3461020e57600036600319011261020e5760025461023081611c2f565b9061023e604051928361182d565b80825260209081830160026000527f405787fa12a823e0f2b7631cc41b3ba8828b3321ca811111fa75cd3aa3bb5ace836000925b848410610290576040518281528061028c8185018a611524565b0390f35b600191829161029e85611b8b565b8152019201920191908490610272565b3461020e57602036600319011261020e576004356001600160a01b038181169182900361020e576102dd611580565b811561032557600054826bffffffffffffffffffffffff60a01b821617600055167f8be0079c531659141344cd1fd0a4f28419497f9722a3daafe3b4186f6b6457e0600080a3005b604051631e4fbdf760e01b815260006004820152602490fd5b3461020e57602036600319011261020e576004356001600160401b03811161020e5761037060209136906004016113f3565b919061039160ff61038a61038536878661184e565b611894565b54166118e0565b8260405193849283378101600181520301902060018060a01b0381541661028c60ff6003840154166103c560018501611b8b565b9361040c6103e160046103da60028501611c46565b9301611b8b565b916103fe604051978897885260a0602089015260a08801906114cf565b908682036040880152611524565b911515606085015283820360808501526114cf565b3461020e5761042f36611420565b9161043b36838361184e565b6040519361048f82519261045e60ff60209889818186019861011c81838c6114ac565b610470604051948592519283916114ac565b830160018152838760018060a01b03958693030190205416331461193c565b6104a260ff61038a61038536888861184e565b6104c560ff60036040518787823788818981016001815203019020015416611ad1565b169283156105335760066040518484823782818681016001815203019020019084600052526040600020600160ff198254161790558160405192839283378101600081520390207f2ad853310b5bb8d2b5d47df3f44105926e2e29c9ed837755ca55fbf91afb9d0c600080a3005b6084906040519062461bcd60e51b82526004820152602560248201527f4c69627261727952656769737472793a20496e76616c69642075736572206164604482015264647265737360d81b6064820152fd5b3461020e57608036600319011261020e576001600160401b0360043581811161020e576105b69036906004016113f3565b60243583811161020e576105ce9036906004016113f3565b60443585811161020e576105e69036906004016113f3565b94909560643590811161020e576106019036906004016114f4565b61065e61060f36888661184e565b6040519061062d60ff8251936020818186019661011c81838a6114ac565b61063f604051928392519283916114ac565b8101906001825260208160018060a01b0393030190205416331461193c565b6106836101a96005604051898782376020818b810160018152030190200186886115ac565b6109115786156108b9576106af6005604051888682376020818a810160018152030190200185876115ac565b6106ba888a8361165d565b6001810180546001600160a01b0319163317905542600282015560038101805460ff19169055600160401b82116107de576004810154826004830155808310610846575b5060040160009081526020812090835b8382106107f457505050505060076040518583823760208187810160018152030190200193845491600160401b8310156107de57600183018087558310156107c85761078984866107c3957fc7f8ad4449b26dfb04794aea7a599668ee576c48b6d67d77a4206ed42a7446c29960005260206000200161165d565b816040519283928337810160008152039020946107b360405194859460408652604086019161180c565b908382036020850152339761180c565b0390a3005b634e487b7160e01b600052603260045260246000fd5b634e487b7160e01b600052604160045260246000fd5b603e19853603018135121561020e57600260208261083a610831600195358a016108286108218280611720565b908b61165d565b84810190611720565b9086890161165d565b0193019101909161070e565b6001600160ff1b0381811682036108a357831683036108a3576004820160005260206000208360011b81015b8260011b820181106108855750506106fe565b80610891600292611752565b61089d60018201611752565b01610872565b634e487b7160e01b600052601160045260246000fd5b60405162461bcd60e51b815260206004820152602a60248201527f4c69627261727952656769737472793a204950465320686173682063616e6e6f6044820152697420626520656d70747960b01b6064820152608490fd5b60405162461bcd60e51b815260206004820152602760248201527f4c69627261727952656769737472793a2056657273696f6e20616c72656164796044820152662065786973747360c81b6064820152608490fd5b3461020e57602036600319011261020e576004356001600160401b03811161020e576109ce600760206109a061028c9436906004016113f3565b91906109b560ff61038a61038536878661184e565b8260405193849283378101600181520301902001611c46565b604051918291602083526020830190611524565b3461020e57600036600319011261020e576000546040516001600160a01b039091168152602090f35b3461020e57610a1936611420565b91610a2536838361184e565b9260405193610a7a815191610a4960ff60209889818186019761011c81838b6114ac565b610a5b604051938492519283916114ac565b820160018152828760018060a01b03948593030190205416331461193c565b610a8d60ff61038a61038536888861184e565b610ab060ff60036040518787823788818981016001815203019020015416611ad1565b60066040518585823786818781016001815203019020019116938460005252604060002060ff1981541690558160405192839283378101600081520390207f61e1da6944bee3dbbd8bf09d92876731e5c8f183a908b8fe1ee1b711d0e637f6600080a3005b3461020e57600036600319011261020e57610b2e611580565b600080546001600160a01b0319811682556001600160a01b03167f8be0079c531659141344cd1fd0a4f28419497f9722a3daafe3b4186f6b6457e08280a3005b3461020e5760a036600319011261020e576001600160401b0360043581811161020e57610b9f9036906004016113f3565b919060243582811161020e57610bb99036906004016113f3565b909360443584811161020e57610bd39036906004016114f4565b60649691963595861515870361020e5760843590811161020e57610bfb9036906004016113f3565b97909460ff6040518689823760208188810160038152030190205416610dc657610c559060405186898237602081888101600181520301902094336bffffffffffffffffffffffff60a01b8754161786556001860161165d565b600160401b82116107de576002830154826002850155808310610d94575b5080600284016000526020600020906000925b848410610d6e575050505050610cb586846004600385019460ff19958681541660ff8c1515161790550161165d565b600160405183868237602081858101600381520301902091825416179055600254600160401b8110156107de57806001610cf292016002556117d5565b939093610d5857610d2582827f844d2197faf6fccfc35de8eabccf901f7f209cc9fb445d1f9379ca3d5dd697999661165d565b816040519283928337810160008152039020926107c360405192839215158352604060208401523396604084019161180c565b634e487b7160e01b600052600060045260246000fd5b6001602082610d88610d81849587611720565b908861165d565b01930193019291610c86565b6002840160005282602060002091820191015b818110610db45750610c73565b80610dc0600192611752565b01610da7565b60405162461bcd60e51b815260206004820152602c60248201527f4c69627261727952656769737472793a204c696272617279206e616d6520616c60448201526b72656164792065786973747360a01b6064820152608490fd5b3461020e57610e2e36611462565b9091610e3b36828661184e565b610e4490611894565b5460ff16610e51906118e0565b610e5c36828661184e565b610e6736848661184e565b946040519586835193818560209a8b978880950191610e85926114ac565b81016001815203019020600501610e9b916118ba565b54610ea5906115c5565b1515610eb090611999565b8260405193849283378101600181520301902060050190610ed0926115ac565b90600160a01b6001900360018301541691600281015491600382015460ff16926004830192610efe90611b8b565b93835491610f0b83611c2f565b9260405193610f1a908561182d565b808452600095865284862085850196875b838210610fd55750505050610f4b6040519660a0885260a08801906114cf565b968487015260408601521515606085015283850360808501525180855281850191808260051b87010193926000965b838810610f875786860387f35b90919293948380610fc4600193601f1986820301875289519083610fb483516040845260408401906114cf565b92015190848184039101526114cf565b970193019701969093929193610f7a565b604051604081018181106001600160401b038211176107de576001926002928b9260405261100287611b8b565b815261100f858801611b8b565b83820152815201930191019091610f2b565b3461020e57602061104d61103436611420565b9161104860ff61038a61038536868661184e565b611b2d565b6040519015158152f35b3461020e5760208060031936011261020e576004356001600160401b03811161020e576110889036906004016113f3565b9161109436848461184e565b906110e6604051926110b560ff82519585818186019861011c81838c6114ac565b6110c7604051948592519283916114ac565b8301600193848252838160018060a01b0393030190205416331461193c565b6110f960ff61038a61038536888861184e565b600760405185858237828187810186815203019020015461138957819060405185858237818187810160038152030190209060ff1991828154169055604051868682378181888101868152030190209160008355611158848401611752565b611184600760029461116b86820161179b565b6000600382015561117e60048201611752565b0161179b565b6000935b6111c6575b6040518088808983378101600081520390207fef574e337d997119b972cfca2ba893b82b0ff63e20ebf2ac448eeb61773535d5600080a2005b825480851015611383576111d9856117d5565b50604051878186810193600090805489896111f3836115c5565b96831692831561136957505050600114611328575b5061121c925003601f19810183528261182d565b519020604051848101908a8a833761124386828d810160008382015203808452018261182d565b5190201461125f575060001984146108a3578480940193611188565b9192939050600019918281019081116108a35761127e611285916117d5565b50916117d5565b919091610d5857611295916119f5565b825480156113125701926112a8846117d5565b919091610d58576112b982546115c5565b90816112cf575b5050505055828080808061118d565b600093601f908184116001146112ee5750505050555b848080806112c0565b9161130b91859387959686528520950160051c85019085016115ff565b55556112e5565b634e487b7160e01b600052603160045260246000fd5b9150506000528186806000208b6000915b8583106113505750505061121c928201018d611208565b80919294505483858801015201910187908b8593611339565b16885261121c958015150285010192508f91506112089050565b5061118d565b6084906040519062461bcd60e51b82526004820152603f60248201527f4c69627261727952656769737472793a2043616e6e6f742064656c657465206c60448201527f6962726172792077697468207075626c69736865642076657273696f6e732e006064820152fd5b9181601f8401121561020e578235916001600160401b03831161020e576020838186019501011161020e57565b604060031982011261020e57600435906001600160401b03821161020e5761144a916004016113f3565b90916024356001600160a01b038116810361020e5790565b604060031982011261020e576001600160401b039160043583811161020e578261148e916004016113f3565b9390939260243591821161020e576114a8916004016113f3565b9091565b60005b8381106114bf5750506000910152565b81810151838201526020016114af565b906020916114e8815180928185528580860191016114ac565b601f01601f1916010190565b9181601f8401121561020e578235916001600160401b03831161020e576020808501948460051b01011161020e57565b908082519081815260208091019281808460051b8301019501936000915b8483106115525750505050505090565b9091929394958480611570600193601f198682030187528a516114cf565b9801930193019194939290611542565b6000546001600160a01b0316330361159457565b60405163118cdaa760e01b8152336004820152602490fd5b6020919283604051948593843782019081520301902090565b90600182811c921680156115f5575b60208310146115df57565b634e487b7160e01b600052602260045260246000fd5b91607f16916115d4565b81811061160a575050565b600081556001016115ff565b9190601f811161162557505050565b611651926000526020600020906020601f840160051c83019310611653575b601f0160051c01906115ff565b565b9091508190611644565b9092916001600160401b0381116107de576116828161167c84546115c5565b84611616565b6000601f82116001146116bc57819293946000926116b1575b50508160011b916000199060031b1c1916179055565b01359050388061169b565b601f198216948382526020918281209281905b888210611708575050836001959697106116ee575b505050811b019055565b0135600019600384901b60f8161c191690553880806116e4565b806001849682949587013581550195019201906116cf565b903590601e198136030182121561020e57018035906001600160401b03821161020e5760200191813603831361020e57565b61175c81546115c5565b9081611766575050565b81601f60009311600114611778575055565b908083918252611797601f60208420940160051c8401600185016115ff565b5555565b80549060008155816117ab575050565b6000526020600020908101905b8181106117c3575050565b806117cf600192611752565b016117b8565b6002548110156107c85760026000527f405787fa12a823e0f2b7631cc41b3ba8828b3321ca811111fa75cd3aa3bb5ace0190600090565b908060209392818452848401376000828201840152601f01601f1916010190565b90601f801991011681019081106001600160401b038211176107de57604052565b9291926001600160401b0382116107de5760405191611877601f8201601f19166020018461182d565b82948184528183011161020e578281602093846000960137010152565b60206118ad9181604051938285809451938492016114ac565b8101600381520301902090565b6020906118d49282604051948386809551938492016114ac565b82019081520301902090565b156118e757565b60405162461bcd60e51b815260206004820152602760248201527f4c69627261727952656769737472793a204c69627261727920646f6573206e6f6044820152661d08195e1a5cdd60ca1b6064820152608490fd5b1561194357565b60405162461bcd60e51b815260206004820152602860248201527f4c69627261727952656769737472793a2043616c6c6572206973206e6f74207460448201526734329037bbb732b960c11b6064820152608490fd5b156119a057565b60405162461bcd60e51b815260206004820152602760248201527f4c69627261727952656769737472793a2056657273696f6e20646f6573206e6f6044820152661d08195e1a5cdd60ca1b6064820152608490fd5b90808214611acd57611a0781546115c5565b906001600160401b0382116107de578190611a2c82611a2686546115c5565b86611616565b600090601f8311600114611a6257600092611a575750508160011b916000199060031b1c1916179055565b01549050388061169b565b81526020808220858352818320935090601f1985169083905b828210611ab4575050908460019594939210611a9b57505050811b019055565b015460001960f88460031b161c191690553880806116e4565b8495819295850154815560018091019601940190611a7b565b5050565b15611ad857565b60405162461bcd60e51b815260206004820152602760248201527f4c69627261727952656769737472793a204c696272617279206973206e6f74206044820152667072697661746560c81b6064820152608490fd5b6020908260405193849283378101600181520301902060ff60038201541615611b845780546001600160a01b0392831692168214918215611b6d57505090565b600692506000520160205260ff6040600020541690565b5050600190565b9060405191826000825492611b9f846115c5565b908184526001948581169081600014611c0c5750600114611bc9575b50506116519250038361182d565b9093915060005260209081600020936000915b818310611bf457505061165193508201013880611bbb565b85548884018501529485019487945091830191611bdc565b91505061165194506020925060ff191682840152151560051b8201013880611bbb565b6001600160401b0381116107de5760051b60200190565b908154611c5281611c2f565b92611c60604051948561182d565b818452600090815260208082208186015b848410611c7f575050505050565b6001838192611c8d85611b8b565b815201920193019290611c7156fea26469706673582212202fee5dd1f99b864bf8e25ec38766c85d94c263bf6c567352cbce9f42ee61444864736f6c63430008140033",
  "linkReferences": {},
  "deployedLinkReferences": {}
}