{
  "_format": "hh-sol-artifact-1",
  "contractName": "LibraryRegistry",
  "sourceName": "contracts/LibraryRegistry.sol",
  "abi": [
    {
      "inputs": [],
      "stateMutability": "nonpayable",
      "type": "constructor"
    },
    {
      "inputs": [
        {
          "internalType": "address",
          "name": "owner",
          "type": "address"
        }
      ],
      "name": "OwnableInvalidOwner",
      "type": "error"
    },
    {
      "inputs": [
        {
          "internalType": "address",
          "name": "account",
          "type": "address"
        }
      ],
      "name": "OwnableUnauthorizedAccount",
      "type": "error"
    },
    {
      "inputs": [],
      "name": "ReentrancyGuardReentrantCall",
      "type": "error"
    },
    {
      "anonymous": false,
      "inputs": [
        {
          "indexed": true,
          "internalType": "string",
          "name": "libraryName",
          "type": "string"
        },
        {
          "indexed": true,
          "internalType": "address",
          "name": "user",
          "type": "address"
        }
      ],
      "name": "AuthorizationGranted",
      "type": "event"
    },
    {
      "anonymous": false,
      "inputs": [
        {
          "indexed": true,
          "internalType": "string",
          "name": "libraryName",
          "type": "string"
        },
        {
          "indexed": true,
          "internalType": "address",
          "name": "user",
          "type": "address"
        }
      ],
      "name": "AuthorizationRevoked",
      "type": "event"
    },
    {
      "anonymous": false,
      "inputs": [
        {
          "indexed": true,
          "internalType": "string",
          "name": "name",
          "type": "string"
        }
      ],
      "name": "LibraryDeleted",
      "type": "event"
    },
    {
      "anonymous": false,
      "inputs": [
        {
          "indexed": true,
          "internalType": "string",
          "name": "name",
          "type": "string"
        },
        {
          "indexed": false,
          "internalType": "uint256",
          "name": "feeInWei",
          "type": "uint256"
        },
        {
          "indexed": false,
          "internalType": "bool",
          "name": "required",
          "type": "bool"
        }
      ],
      "name": "LibraryLicenseConfigSet",
      "type": "event"
    },
    {
      "anonymous": false,
      "inputs": [
        {
          "indexed": true,
          "internalType": "string",
          "name": "name",
          "type": "string"
        },
        {
          "indexed": true,
          "internalType": "address",
          "name": "buyer",
          "type": "address"
        },
        {
          "indexed": true,
          "internalType": "address",
          "name": "libraryOwner",
          "type": "address"
        },
        {
          "indexed": false,
          "internalType": "uint256",
          "name": "feePaid",
          "type": "uint256"
        }
      ],
      "name": "LibraryLicensePurchased",
      "type": "event"
    },
    {
      "anonymous": false,
      "inputs": [
        {
          "indexed": true,
          "internalType": "string",
          "name": "name",
          "type": "string"
        },
        {
          "indexed": true,
          "internalType": "address",
          "name": "owner",
          "type": "address"
        },
        {
          "indexed": false,
          "internalType": "bool",
          "name": "isPrivate",
          "type": "bool"
        },
        {
          "indexed": false,
          "internalType": "string",
          "name": "language",
          "type": "string"
        }
      ],
      "name": "LibraryRegistered",
      "type": "event"
    },
    {
      "anonymous": false,
      "inputs": [
        {
          "indexed": true,
          "internalType": "address",
          "name": "previousOwner",
          "type": "address"
        },
        {
          "indexed": true,
          "internalType": "address",
          "name": "newOwner",
          "type": "address"
        }
      ],
      "name": "OwnershipTransferred",
      "type": "event"
    },
    {
      "anonymous": false,
      "inputs": [
        {
          "indexed": true,
          "internalType": "string",
          "name": "libraryName",
          "type": "string"
        },
        {
          "indexed": false,
          "internalType": "string",
          "name": "version",
          "type": "string"
        }
      ],
      "name": "VersionDeprecated",
      "type": "event"
    },
    {
      "anonymous": false,
      "inputs": [
        {
          "indexed": true,
          "internalType": "string",
          "name": "libraryName",
          "type": "string"
        },
        {
          "indexed": false,
          "internalType": "string",
          "name": "version",
          "type": "string"
        },
        {
          "indexed": false,
          "internalType": "string",
          "name": "ipfsHash",
          "type": "string"
        },
        {
          "indexed": true,
          "internalType": "address",
          "name": "publisher",
          "type": "address"
        }
      ],
      "name": "VersionPublished",
      "type": "event"
    },
    {
      "inputs": [
        {
          "internalType": "string",
          "name": "libraryName",
          "type": "string"
        },
        {
          "internalType": "address",
          "name": "userAddress",
          "type": "address"
        }
      ],
      "name": "authorizeUser",
      "outputs": [],
      "stateMutability": "nonpayable",
      "type": "function"
    },
    {
      "inputs": [
        {
          "internalType": "string",
          "name": "name",
          "type": "string"
        }
      ],
      "name": "deleteLibrary",
      "outputs": [],
      "stateMutability": "nonpayable",
      "type": "function"
    },
    {
      "inputs": [
        {
          "internalType": "string",
          "name": "libraryName",
          "type": "string"
        },
        {
          "internalType": "string",
          "name": "version",
          "type": "string"
        }
      ],
      "name": "deprecateVersion",
      "outputs": [],
      "stateMutability": "nonpayable",
      "type": "function"
    },
    {
      "inputs": [],
      "name": "getAllLibraryNames",
      "outputs": [
        {
          "internalType": "string[]",
          "name": "",
          "type": "string[]"
        }
      ],
      "stateMutability": "view",
      "type": "function"
    },
    {
      "inputs": [
        {
          "internalType": "string",
          "name": "libraryName",
          "type": "string"
        }
      ],
      "name": "getLibraryInfo",
      "outputs": [
        {
          "internalType": "address",
          "name": "owner",
          "type": "address"
        },
        {
          "internalType": "string",
          "name": "description",
          "type": "string"
        },
        {
          "internalType": "string[]",
          "name": "tags",
          "type": "string[]"
        },
        {
          "internalType": "bool",
          "name": "isPrivate",
          "type": "bool"
        },
        {
          "internalType": "string",
          "name": "language",
          "type": "string"
        },
        {
          "internalType": "uint256",
          "name": "licenseFee",
          "type": "uint256"
        },
        {
          "internalType": "bool",
          "name": "licenseRequired",
          "type": "bool"
        }
      ],
      "stateMutability": "view",
      "type": "function"
    },
    {
      "inputs": [
        {
          "internalType": "string",
          "name": "libraryName",
          "type": "string"
        },
        {
          "internalType": "string",
          "name": "version",
          "type": "string"
        }
      ],
      "name": "getVersionInfo",
      "outputs": [
        {
          "internalType": "string",
          "name": "ipfsHash",
          "type": "string"
        },
        {
          "internalType": "address",
          "name": "publisher",
          "type": "address"
        },
        {
          "internalType": "uint256",
          "name": "timestamp",
          "type": "uint256"
        },
        {
          "internalType": "bool",
          "name": "deprecated",
          "type": "bool"
        },
        {
          "components": [
            {
              "internalType": "string",
              "name": "name",
              "type": "string"
            },
            {
              "internalType": "string",
              "name": "constraint",
              "type": "string"
            }
          ],
          "internalType": "struct LibraryRegistry.Dependency[]",
          "name": "dependencies",
          "type": "tuple[]"
        }
      ],
      "stateMutability": "view",
      "type": "function"
    },
    {
      "inputs": [
        {
          "internalType": "string",
          "name": "libraryName",
          "type": "string"
        }
      ],
      "name": "getVersionNumbers",
      "outputs": [
        {
          "internalType": "string[]",
          "name": "",
          "type": "string[]"
        }
      ],
      "stateMutability": "view",
      "type": "function"
    },
    {
      "inputs": [
        {
          "internalType": "string",
          "name": "libraryName",
          "type": "string"
        },
        {
          "internalType": "address",
          "name": "userAddress",
          "type": "address"
        }
      ],
      "name": "hasAccess",
      "outputs": [
        {
          "internalType": "bool",
          "name": "",
          "type": "bool"
        }
      ],
      "stateMutability": "view",
      "type": "function"
    },
    {
      "inputs": [
        {
          "internalType": "string",
          "name": "libraryName",
          "type": "string"
        },
        {
          "internalType": "address",
          "name": "userAddress",
          "type": "address"
        }
      ],
      "name": "hasUserLicense",
      "outputs": [
        {
          "internalType": "bool",
          "name": "",
          "type": "bool"
        }
      ],
      "stateMutability": "view",
      "type": "function"
    },
    {
      "inputs": [],
      "name": "owner",
      "outputs": [
        {
          "internalType": "address",
          "name": "",
          "type": "address"
        }
      ],
      "stateMutability": "view",
      "type": "function"
    },
    {
      "inputs": [
        {
          "internalType": "string",
          "name": "libraryName",
          "type": "string"
        },
        {
          "internalType": "string",
          "name": "version",
          "type": "string"
        },
        {
          "internalType": "string",
          "name": "ipfsHash",
          "type": "string"
        },
        {
          "components": [
            {
              "internalType": "string",
              "name": "name",
              "type": "string"
            },
            {
              "internalType": "string",
              "name": "constraint",
              "type": "string"
            }
          ],
          "internalType": "struct LibraryRegistry.Dependency[]",
          "name": "_dependencies",
          "type": "tuple[]"
        }
      ],
      "name": "publishVersion",
      "outputs": [],
      "stateMutability": "nonpayable",
      "type": "function"
    },
    {
      "inputs": [
        {
          "internalType": "string",
          "name": "name",
          "type": "string"
        }
      ],
      "name": "purchaseLibraryLicense",
      "outputs": [],
      "stateMutability": "payable",
      "type": "function"
    },
    {
      "inputs": [
        {
          "internalType": "string",
          "name": "name",
          "type": "string"
        },
        {
          "internalType": "string",
          "name": "description",
          "type": "string"
        },
        {
          "internalType": "string[]",
          "name": "tags",
          "type": "string[]"
        },
        {
          "internalType": "bool",
          "name": "isPrivate",
          "type": "bool"
        },
        {
          "internalType": "string",
          "name": "_language",
          "type": "string"
        }
      ],
      "name": "registerLibrary",
      "outputs": [],
      "stateMutability": "nonpayable",
      "type": "function"
    },
    {
      "inputs": [],
      "name": "renounceOwnership",
      "outputs": [],
      "stateMutability": "nonpayable",
      "type": "function"
    },
    {
      "inputs": [
        {
          "internalType": "string",
          "name": "libraryName",
          "type": "string"
        },
        {
          "internalType": "address",
          "name": "userAddress",
          "type": "address"
        }
      ],
      "name": "revokeAuthorization",
      "outputs": [],
      "stateMutability": "nonpayable",
      "type": "function"
    },
    {
      "inputs": [
        {
          "internalType": "string",
          "name": "name",
          "type": "string"
        },
        {
          "internalType": "uint256",
          "name": "feeInWei",
          "type": "uint256"
        },
        {
          "internalType": "bool",
          "name": "required",
          "type": "bool"
        }
      ],
      "name": "setLibraryLicense",
      "outputs": [],
      "stateMutability": "nonpayable",
      "type": "function"
    },
    {
      "inputs": [
        {
          "internalType": "address",
          "name": "newOwner",
          "type": "address"
        }
      ],
      "name": "transferOwnership",
      "outputs": [],
      "stateMutability": "nonpayable",
      "type": "function"
    }
  ],
  "bytecode": "0x6080806040523461007e5733156100685760008054336001600160a01b03198216811783556040519290916001600160a01b0316907f8be0079c531659141344cd1fd0a4f28419497f9722a3daafe3b4186f6b6457e09080a36001805561243390816100848239f35b631e4fbdf760e01b815260006004820152602490fd5b600080fdfe6080604052600436101561001257600080fd5b60003560e01c8063097396a5146116c557806313bd20e214611699578063401061f7146114665780634586291214611196578063715018a61461113d578063817d279d146110335780638da5cb5b1461100a5780638e59f5dd14610f8e578063a0935e5014610bb0578063aec4a87b146109c6578063b4f6388514610862578063e9a4d26a1461082c578063ef77d12214610735578063f29412b81461037a578063f2fde38b146102ea578063fd908b2b1461024f5763ff909a8c146100d757600080fd5b3461024a576102457f4ec7bb72c7d33795506179b0599b6df6ff0a26a7cc3245eb177bc5c39857116b61010936611afd565b9291610119959195368285611f04565b9261017e6040519480519061014e60ff60209889818186019661013d81838a611b47565b810160058152030190205416611f87565b61016060405192839251928391611b47565b81019060028252868160018060a01b03930301902054163314611fe3565b6101f26101eb6101e58960076101d4896101a561019c368b8b611f04565b948d3691611f04565b93604051906101c360ff82519385818186019661013d81838a611b47565b604051938492839251928391611b47565b810160028152030190200190611f61565b54611c60565b1515612040565b60036102156007604051858582378781878101600281520301902001878a611c47565b01600160ff1982541617905581604051928392833781016000815203902094604051938385948552840191611ea7565b0390a2005b600080fd5b3461024a57600036600319011261024a5760045461026c81612391565b9061027a6040519283611ec8565b80825260209081830160046000527f8a35acfbc15ff81a39ae7d344fd709f28e8600b4aa8c65c6b64bfe7fe36bd19b836000925b8484106102cc57604051828152806102c88185018a611bbf565b0390f35b60019182916102da856122ed565b81520192019201919084906102ae565b3461024a57602036600319011261024a576004356001600160a01b038181169182900361024a57610319611c1b565b811561036157600054826bffffffffffffffffffffffff60a01b821617600055167f8be0079c531659141344cd1fd0a4f28419497f9722a3daafe3b4186f6b6457e0600080a3005b604051631e4fbdf760e01b815260006004820152602490fd5b60208060031936011261024a576004356001600160401b03811161024a576103a6903690600401611a8e565b916002600154146107235760026001556103d560ff6103ce6103c9368787611f04565b611f3b565b5416611f87565b60405183838237818185810160028152030190209260018060a01b038454169360ff600682015416156106b857604051828582378381848101600381520301902033600052835260ff6040600020541661064d5760050154928334106105d45760405182828237838184810160038152030190203360005283526040600020600160ff1982541617905583610553575b8334116104b2575b907f4ead4014d27bc6a8ad12920fac87ba96bef0cc086939d483eae173235069dab391816040519283928337810160008152039020916040519384523393a460018055005b83340334811161053d57600080808093335af16104cd612178565b5061046d5760405162461bcd60e51b815260048101849052603760248201527f4c69627261727952656769737472793a204661696c656420746f20726566756e60448201527f64206f7665727061796d656e7420746f2062757965722e0000000000000000006064820152608490fd5b634e487b7160e01b600052601160045260246000fd5b600080808087895af1610564612178565b506104655760405162461bcd60e51b815260048101849052603760248201527f4c69627261727952656769737472793a204661696c656420746f2073656e642060448201527f457468657220746f206c696272617279206f776e65722e0000000000000000006064820152608490fd5b60405162461bcd60e51b815260048101849052604560248201527f4c69627261727952656769737472793a20496e73756666696369656e7420457460448201527f6865722073656e742e20526571756972656420657861637420666565206f722060648201526436b7b9329760d91b608482015260a490fd5b60405162461bcd60e51b815260048101849052603760248201527f4c69627261727952656769737472793a204c6963656e736520616c726561647960448201527f206f776e6564206279207468697320616464726573732e0000000000000000006064820152608490fd5b60405162461bcd60e51b815260048101849052603760248201527f4c69627261727952656769737472793a204c6963656e7365206e6f742072657160448201527f756972656420666f722074686973206c6962726172792e0000000000000000006064820152608490fd5b604051633ee5aeb560e01b8152600490fd5b3461024a57602036600319011261024a576004356001600160401b03811161024a576107676020913690600401611a8e565b919061077c60ff6103ce6103c9368786611f04565b8260405193849283378101600281520301902060018060a01b0381541660ff60038301541660058301549061081b60ff600686015416916107bf600187016122ed565b956108066107db60046107d4600285016123a8565b93016122ed565b916107f8604051998a998a5260e060208b015260e08a0190611b6a565b9088820360408a0152611bbf565b91151560608701528582036080870152611b6a565b9160a0840152151560c08301520390f35b3461024a57602061085861083f36611abb565b9161085360ff6103ce6103c9368686611f04565b6122aa565b6040519015158152f35b3461024a5761087036611abb565b9161087c368383611f04565b604051936108d082519261089f60ff60209889818186019861013d81838c611b47565b6108b160405194859251928391611b47565b830160028152838760018060a01b039586930301902054163314611fe3565b6108e360ff6103ce6103c9368888611f04565b61090660ff600360405187878237888189810160028152030190200154166121a8565b169283156109745760086040518484823782818681016002815203019020019084600052526040600020600160ff198254161790558160405192839283378101600081520390207f2ad853310b5bb8d2b5d47df3f44105926e2e29c9ed837755ca55fbf91afb9d0c600080a3005b6084906040519062461bcd60e51b82526004820152602560248201527f4c69627261727952656769737472793a20496e76616c69642075736572206164604482015264647265737360d81b6064820152fd5b3461024a57606036600319011261024a576004356001600160401b03811161024a576109f6903690600401611a8e565b60443591602435918315159182850361024a57610a14368383611f04565b94610a6860405196805190610a3860ff60209a8b818186019661013d81838a611b47565b610a4a60405192839251928391611b47565b81019060028252888160018060a01b03930301902054163314611fe3565b610a7b60ff6103ce6103c9368787611f04565b604051838382378681858101600281520301902060018514610afb575b91610ade8694926006857feccaedfbabd322d2a02624df441275741c9dbe91ecc644e30075325b451f635899600560409a980155019060ff801983541691151516179055565b8185519283928337810160008152039020948351928352820152a2005b60ff60038201541615610a985760405162461bcd60e51b815260048101889052606e60248201527f4c69627261727952656769737472793a2050726976617465206c69627261726960448201527f65732063616e6e6f7420726571756972652061206c6963656e736520666f722060648201527f616363657373207669612070757263686173653b20757365206469726563742060848201526d30baba3437b934bd30ba34b7b71760911b60a482015260c490fd5b3461024a57608036600319011261024a576001600160401b0360043581811161024a57610be1903690600401611a8e565b60243583811161024a57610bf9903690600401611a8e565b60443585811161024a57610c11903690600401611a8e565b94909560643590811161024a57610c2c903690600401611b8f565b610c89610c3a368886611f04565b60405190610c5860ff8251936020818186019661013d81838a611b47565b610c6a60405192839251928391611b47565b8101906002825260208160018060a01b03930301902054163314611fe3565b610c9c60ff6103ce6103c9368a88611f04565b610cc16101e56007604051898782376020818b81016002815203019020018688611c47565b610f39578615610ee157610ced6007604051888682376020818a81016002815203019020018587611c47565b610cf8888a83611cf8565b6001810180546001600160a01b0319163317905542600282015560038101805460ff19169055600160401b8211610e1c576004810154826004830155808310610e84575b5060040160009081526020812090835b838210610e3257505050505060096040518583823760208187810160028152030190200193845491600160401b831015610e1c5760018301808755831015610e0657610dc78486610e01957fc7f8ad4449b26dfb04794aea7a599668ee576c48b6d67d77a4206ed42a7446c299600052602060002001611cf8565b81604051928392833781016000815203902094610df1604051948594604086526040860191611ea7565b9083820360208501523397611ea7565b0390a3005b634e487b7160e01b600052603260045260246000fd5b634e487b7160e01b600052604160045260246000fd5b603e19853603018135121561024a576002602082610e78610e6f600195358a01610e66610e5f8280611dbb565b908b611cf8565b84810190611dbb565b90868901611cf8565b01930191019091610d4c565b6001600160ff1b03818116820361053d578316830361053d576004820160005260206000208360011b81015b8260011b82018110610ec3575050610d3c565b80610ecf600292611ded565b610edb60018201611ded565b01610eb0565b60405162461bcd60e51b815260206004820152602a60248201527f4c69627261727952656769737472793a204950465320686173682063616e6e6f6044820152697420626520656d70747960b01b6064820152608490fd5b60405162461bcd60e51b815260206004820152602760248201527f4c69627261727952656769737472793a2056657273696f6e20616c72656164796044820152662065786973747360c81b6064820152608490fd5b3461024a57602036600319011261024a576004356001600160401b03811161024a57610ff660096020610fc86102c8943690600401611a8e565b9190610fdd60ff6103ce6103c9368786611f04565b82604051938492833781016002815203019020016123a8565b604051918291602083526020830190611bbf565b3461024a57600036600319011261024a576000546040516001600160a01b039091168152602090f35b3461024a5761104136611abb565b9161104d368383611f04565b92604051936110a281519161107160ff60209889818186019761013d81838b611b47565b61108360405193849251928391611b47565b820160028152828760018060a01b039485930301902054163314611fe3565b6110b560ff6103ce6103c9368888611f04565b6110d860ff600360405187878237888189810160028152030190200154166121a8565b60086040518585823786818781016002815203019020019116938460005252604060002060ff1981541690558160405192839283378101600081520390207f61e1da6944bee3dbbd8bf09d92876731e5c8f183a908b8fe1ee1b711d0e637f6600080a3005b3461024a57600036600319011261024a57611156611c1b565b600080546001600160a01b0319811682556001600160a01b03167f8be0079c531659141344cd1fd0a4f28419497f9722a3daafe3b4186f6b6457e08280a3005b3461024a5760a036600319011261024a576001600160401b0360043581811161024a576111c7903690600401611a8e565b9060243583811161024a576111e0903690600401611a8e565b929060443585811161024a576111fa903690600401611b8f565b909560643515156064350361024a5760843590811161024a57611221903690600401611a8e565b96909560ff604051868882376020818881016005815203019020541661140c5761127b9060405186888237602081888101600281520301902094336bffffffffffffffffffffffff60a01b87541617865560018601611cf8565b600160401b8211610e1c5760028301548260028501558083106113d9575b5080600284016000526020600020906000925b8484106113b35750505050506006906112d6606435600383019060ff801983541691151516179055565b6112e4868660048401611cf8565b600060058201550160ff1990818154169055600160405183858237602081858101600581520301902091825416179055600454600160401b811015610e1c578060016113339201600455611e70565b91909161139d578261136a827f844d2197faf6fccfc35de8eabccf901f7f209cc9fb445d1f9379ca3d5dd6979995610e0195611cf8565b81604051928392833781016000815203902092604051918291606435151583526040602084015233966040840191611ea7565b634e487b7160e01b600052600060045260246000fd5b60016020826113cd6113c6849587611dbb565b9088611cf8565b019301930192916112ac565b600284016000526020600020908382015b81830181106113fa575050611299565b80611406600192611ded565b016113ea565b60405162461bcd60e51b815260206004820152602c60248201527f4c69627261727952656769737472793a204c696272617279206e616d6520616c60448201526b72656164792065786973747360a01b6064820152608490fd5b3461024a5761147436611afd565b9091611481368286611f04565b61148a90611f3b565b5460ff1661149790611f87565b6114a2368286611f04565b936114ae368486611f04565b9060405191828751602098828a80978482968396848701916114cf92611b47565b810160058152030190205460ff166114e690611f87565b60405192838281935192839101916114fd92611b47565b8101600281520301902060070161151391611f61565b5461151d90611c60565b151561152890612040565b826040519384928337810160028152030190206007019061154892611c47565b90600160a01b6001900360018301541691600281015491600382015460ff16926004830192611576906122ed565b9383549161158383612391565b92604051936115929085611ec8565b808452600095865284862085850196875b83821061164d57505050506115c36040519660a0885260a0880190611b6a565b968487015260408601521515606085015283850360808501525180855281850191808260051b87010193926000965b8388106115ff5786860387f35b9091929394838061163c600193601f198682030187528951908361162c8351604084526040840190611b6a565b9201519084818403910152611b6a565b9701930197019690939291936115f2565b604051604081018181106001600160401b03821117610e1c576001926002928b9260405261167a876122ed565b81526116878588016122ed565b838201528152019301910190916115a3565b3461024a5760206108586116ac36611abb565b916116c060ff6103ce6103c9368686611f04565b612204565b3461024a5760208060031936011261024a576004356001600160401b03811161024a576116f6903690600401611a8e565b91611702368484611f04565b6117666040519180519061173660ff86830193611720818887611b47565b8601958781600598898152030190205416611f87565b61174860405192839251928391611b47565b81019060028252848160018060a01b03930301902054163314611fe3565b61177960ff6103ce6103c9368888611f04565b600960405185858237838187810160028152030190200154611a235790600991604051858582378281878101848152030190209160ff199283815416905560405186868237818188810160028152030190209260008455611815600195856117e388809801611ded565b6117ef60028201611e36565b6000600382015561180260048201611ded565b6000868201556000600682015501611e36565b6000935b611857575b6040518088808983378101600081520390207fef574e337d997119b972cfca2ba893b82b0ff63e20ebf2ac448eeb61773535d5600080a2005b60045480851015611a1d5761186b85611e70565b506040518781868101936000908054898961188583611c60565b968316928315611a03575050506001146119c2575b506118ae925003601f198101835282611ec8565b519020604051848101908a8a83376118d586828d8101600083820152038084520182611ec8565b519020146118f15750600019841461053d578480940193611819565b919390506000949294199182810190811161053d5761191261191991611e70565b5091611e70565b91909161139d576119299161209c565b60045480156119ac57019261193d84611e70565b92909261139d5761194e8354611c60565b9182611967575b5050505050600455828080808061181e565b600094601f90818511600114611988575050505050555b8380808080611955565b918593916119a593889697875286209601901c8501908501611c9a565b555561197e565b634e487b7160e01b600052603160045260246000fd5b9150506000528186806000208b6000915b8583106119ea575050506118ae928201018d61189a565b80919294505483858801015201910187908b85936119d3565b1688526118ae958015150285010192508f915061189a9050565b5061181e565b60405162461bcd60e51b815260048101839052603f60248201527f4c69627261727952656769737472793a2043616e6e6f742064656c657465206c60448201527f6962726172792077697468207075626c69736865642076657273696f6e732e006064820152608490fd5b9181601f8401121561024a578235916001600160401b03831161024a576020838186019501011161024a57565b604060031982011261024a57600435906001600160401b03821161024a57611ae591600401611a8e565b90916024356001600160a01b038116810361024a5790565b604060031982011261024a576001600160401b039160043583811161024a5782611b2991600401611a8e565b9390939260243591821161024a57611b4391600401611a8e565b9091565b60005b838110611b5a5750506000910152565b8181015183820152602001611b4a565b90602091611b8381518092818552858086019101611b47565b601f01601f1916010190565b9181601f8401121561024a578235916001600160401b03831161024a576020808501948460051b01011161024a57565b908082519081815260208091019281808460051b8301019501936000915b848310611bed5750505050505090565b9091929394958480611c0b600193601f198682030187528a51611b6a565b9801930193019194939290611bdd565b6000546001600160a01b03163303611c2f57565b60405163118cdaa760e01b8152336004820152602490fd5b6020919283604051948593843782019081520301902090565b90600182811c92168015611c90575b6020831014611c7a57565b634e487b7160e01b600052602260045260246000fd5b91607f1691611c6f565b818110611ca5575050565b60008155600101611c9a565b9190601f8111611cc057505050565b611cec926000526020600020906020601f840160051c83019310611cee575b601f0160051c0190611c9a565b565b9091508190611cdf565b9092916001600160401b038111610e1c57611d1d81611d178454611c60565b84611cb1565b6000601f8211600114611d575781929394600092611d4c575b50508160011b916000199060031b1c1916179055565b013590503880611d36565b601f198216948382526020918281209281905b888210611da357505083600195969710611d89575b505050811b019055565b0135600019600384901b60f8161c19169055388080611d7f565b80600184968294958701358155019501920190611d6a565b903590601e198136030182121561024a57018035906001600160401b03821161024a5760200191813603831361024a57565b611df78154611c60565b9081611e01575050565b81601f60009311600114611e13575055565b908083918252611e32601f60208420940160051c840160018501611c9a565b5555565b8054906000815581611e46575050565b6000526020600020908101905b818110611e5e575050565b80611e6a600192611ded565b01611e53565b600454811015610e065760046000527f8a35acfbc15ff81a39ae7d344fd709f28e8600b4aa8c65c6b64bfe7fe36bd19b0190600090565b908060209392818452848401376000828201840152601f01601f1916010190565b90601f801991011681019081106001600160401b03821117610e1c57604052565b6001600160401b038111610e1c57601f01601f191660200190565b929192611f1082611ee9565b91611f1e6040519384611ec8565b82948184528183011161024a578281602093846000960137010152565b6020611f54918160405193828580945193849201611b47565b8101600581520301902090565b602090611f7b928260405194838680955193849201611b47565b82019081520301902090565b15611f8e57565b60405162461bcd60e51b815260206004820152602760248201527f4c69627261727952656769737472793a204c69627261727920646f6573206e6f6044820152661d08195e1a5cdd60ca1b6064820152608490fd5b15611fea57565b60405162461bcd60e51b815260206004820152602860248201527f4c69627261727952656769737472793a2043616c6c6572206973206e6f74207460448201526734329037bbb732b960c11b6064820152608490fd5b1561204757565b60405162461bcd60e51b815260206004820152602760248201527f4c69627261727952656769737472793a2056657273696f6e20646f6573206e6f6044820152661d08195e1a5cdd60ca1b6064820152608490fd5b90808214612174576120ae8154611c60565b906001600160401b038211610e1c5781906120d3826120cd8654611c60565b86611cb1565b600090601f8311600114612109576000926120fe5750508160011b916000199060031b1c1916179055565b015490503880611d36565b81526020808220858352818320935090601f1985169083905b82821061215b57505090846001959493921061214257505050811b019055565b015460001960f88460031b161c19169055388080611d7f565b8495819295850154815560018091019601940190612122565b5050565b3d156121a3573d9061218982611ee9565b916121976040519384611ec8565b82523d6000602084013e565b606090565b156121af57565b60405162461bcd60e51b815260206004820152602760248201527f4c69627261727952656769737472793a204c696272617279206973206e6f74206044820152667072697661746560c81b6064820152608490fd5b60405182828237600283820190815281900360200190206001600160a01b039384169384156122a05781541684146122975760ff60038201541661227e576006015460ff1661225557505050600190565b602090826040519384928337810160038152030190209060005260205260ff6040600020541690565b9150506008916000520160205260ff6040600020541690565b50505050600190565b5050505050600090565b6001600160a01b039092169182156122e557602090826040519384928337810160038152030190209060005260205260ff6040600020541690565b505050600090565b906040519182600082549261230184611c60565b90818452600194858116908160001461236e575060011461232b575b5050611cec92500383611ec8565b9093915060005260209081600020936000915b818310612356575050611cec9350820101388061231d565b8554888401850152948501948794509183019161233e565b915050611cec94506020925060ff191682840152151560051b820101388061231d565b6001600160401b038111610e1c5760051b60200190565b9081546123b481612391565b926123c26040519485611ec8565b818452600090815260208082208186015b8484106123e1575050505050565b60018381926123ef856122ed565b8152019201930192906123d356fea26469706673582212201447984114d6228d308660b3fd48ac6df378e1a66a32b92fde4609b7c90b4f3d64736f6c63430008140033",
  "linkReferences": {},
  "deployedLinkReferences": {}
}